:020000040800F2
:10000000080A0020CD010008F93000080720000888
:10001000952E000835030008913800080000000004
:100020000000000000000000000000006532000831
:10003000B50400080000000011310008F733000883
:10004000E7010008E7010008E7010008E7010008F0
:10005000E7010008E7010008E7010008E7010008E0
:10006000E7010008E7010008E7010008E7010008D0
:10007000E7010008E7010008E7010008E7010008C0
:10008000E7010008E7010008E7010008E7010008B0
:10009000E7010008E7010008E7010008E7010008A0
:1000A000E7010008E7010008E7010008E701000890
:1000B000E7010008E7010008E70100081520000833
:1000C00009200008E7010008E7010008E70100082F
:1000D000E701000885380008E7010008E70100088B
:1000E000E7010008E7010008E7010008E701000850
:1000F000E7010008E7010008E7010008E701000840
:10010000E7010008E7010008E7010008E70100082F
:10011000E7010008E70100085D340008E701000876
:10012000E7010008E7010008E7010008E70100080F
:1001300000F002F800F03AF80AA090E8000C8244BF
:100140008344AAF10107DA4501D100F02FF8AFF29C
:10015000090EBAE80F0013F0010F18BFFB1A43F0A5
:1001600001031847843D0000A43D0000103A24BF5D
:1001700078C878C1FAD8520724BF30C830C144BF0C
:1001800004680C607047000000230024002500264E
:10019000103A28BF78C1FBD8520728BF30C148BFEA
:1001A0000B6070471FB51FBD10B510BD00F058F8AB
:1001B0001146FFF7F7FF03F00FFC00F076F803B4E9
:1001C000FFF7F2FF03BC00F07DF80000094880470C
:1001D00009480047FEE7FEE7FEE7FEE7FEE7FEE729
:1001E000FEE7FEE7FEE7FEE704480549054A064B41
:1001F000704700005934000831010008080400204D
:10020000080A002008060020080600204FF000021F
:1002100000B5134694469646203922BFA0E80C50FC
:10022000A0E80C50B1F12001BFF4F7AF090728BFD7
:10023000A0E80C5048BF0CC05DF804EB890028BF53
:1002400040F8042B08BF704748BF20F8022B11F07C
:10025000804F18BF00F8012B7047704770477047F8
:10026000754600F02BF8AE4605006946534620F06F
:100270000700854618B020B5FFF7B6FFBDE820405F
:100280004FF000064FF000074FF000084FF0000B52
:1002900021F00701AC46ACE8C009ACE8C009ACE805
:1002A000C009ACE8C0098D46704710B50446AFF3ED
:1002B00000802046BDE81040FFF781BF004870472E
:1002C000A803002001491820ABBEFEE7260002006B
:1002D000704700007CB5134C134D144E009400235E
:1002E0002A4631461248019403F022FB104800943C
:1002F00000232A4631462430019403F019FB0C48B0
:10030000009400232A4631464830019403F010FB44
:100310000748009400232A4631466C30019403F0CC
:1003200007FB7CBD00806D44CDCCCC3D0000C842B5
:100330002C000020FEE7000002494860C8604861C8
:10034000C8617047D8000020194890F900100529AD
:100350002DD2DFE801F0030507172900002024E073
:10036000122022E090F90100012808D0022803D0D1
:1003700003281CD1232100E01E21002012E01421BB
:100380000F200FE090F90100012809D0022804D0C5
:1003900003280CD10021232004E000211E2001E0CD
:1003A0000F21142000F03CB80A20FFF7C5BF7047AA
:1003B00000000020194890F9001005292CD2DFE830
:1003C00001F0030507172800002023E0282021E082
:1003D00090F90100012809D0022804D003281BD17C
:1003E0002321002013E01E210F2010E023210AE02A
:1003F00090F90100012808D0022803D003280BD16E
:10040000002103E00F211E2001E01E21232000F027
:1004100007B80A20FFF790BF7047000000000020D7
:10042000024A5060D160D16150617047D80000200D
:1004300010B50021084801F0E1FB0421064801F055
:10044000DDFB0821044801F0D9FBBDE810400C2178
:10045000014801F0D3BB0000FC01002010B50020D2
:1004600002F046FD002002F08FFD002002F0D8FDD2
:10047000BDE81040002002F01FBE000010B50C4C7B
:10048000E06903F049FB02F033FD206C03F044FB0C
:1004900002F07AFD606E03F03FFB02F0C1FDD4F87C
:1004A000880003F039FBBDE8104002F005BE0000F3
:1004B0002C0000207047000010B5094C207828B9A6
:1004C00000F06AF800F05AF80120207002F04AFEAD
:1004D000BDE8104014214FF4967000F003B80000FE
:1004E00008000020F0B5154C42424B42D4E90067A9
:1004F000D01700251249961B70EB070601DA4B60F6
:1005000000E04D60D4E90267961B70EB070601DA44
:10051000CB6000E0CD60D4E90467961B70EB070662
:1005200001DA4B6100E04D61D4E90664921BA04101
:1005300001DACB61F0BDCD61F0BD0000F800002014
:10054000D800002010B53C21084801F061F93C2199
:10055000074801F05DF93C21064801F059F9BDE872
:1005600010403C21044801F053B900006C01002008
:10057000440200208C0200201C03002005480021BA
:10058000C0E90011C0E90211C0E90411C0E9061177
:1005900070470000F8000020064900200968486202
:1005A00005490968486205490968486204490968BB
:1005B000486270476C010020B4010020FC0100205B
:1005C0004402002072B6FEE710B590F82110002218
:1005D000022905D00421816380F82020012010BD6C
:1005E00001680B6823F00E030B6001680B6823F0B1
:1005F00001030B6090F84030C46B012101FA03F352
:10060000636080F8211080F82020104610BD0000A3
:100610002DE9F05F90F821100024022903D0042175
:100620008163012485E001680A6822F00E020A60F5
:1006300001680A6822F001020A603F4E3E4FB2157F
:10064000DFF8F4C0DFF8F090DFF8ECA0DFF8E8B0F6
:10065000DFF8E4E00168783F13011502ACF1640CA7
:10066000A9F15009AAF13C0AABF1280BAEF1140E26
:100670004FF48018B14227D9B9420ED0614512D04B
:1006800049451DD0514518D0594518D0714501D163
:10069000424615E0294EB14201D1012210E0274E19
:1006A0001436B14201D110220AE0244E2836B1425C
:1006B00006D0224A3C32914201D11A4600E02A4635
:1006C0001E49091F0A602BE0B94213D0614517D0BB
:1006D000494522D051451DD059451DD0714501D104
:1006E00042461AE0B14202D14FF0807215E0134E3B
:1006F000B14201D1012210E0104E1436B14201D1B5
:1007000010220AE00D4E2836B14206D00B4A3C3288
:10071000914201D11A4600E02A46074980394A60D1
:10072000012180F82110002180F82010416B01B1D7
:1007300088472046BDE8F09F800002400804024040
:1007400090F82100704700002DE9F84FDFF8C891BC
:10075000002409F1040A0AF1040B23460F270BF1C8
:10076000040ED1E00125A54006EA0502AA4276D191
:10077000DFF8A8C14E68A6EB0C0866452BD00DDC4F
:10078000032E34D005DC36B3012E19D0022E2FD122
:100790001BE0112E16D0122E2AD119E0B8F5881FB1
:1007A00019D006DCB8F5803F15D0B8F5801F1FD1F1
:1007B00011E0B8F5001F0ED0B8F5041F18D10AE0FB
:1007C000CB6815E0CB681B1D12E0CB6808330FE047
:1007D000CB680C330CE08B682BB1012B4FF0080376
:1007E00003D0456104E0042302E0056100E000233A
:1007F000FF2A01D8064601E000F104064FEA84050D
:1008000001D9A5F12005D6F8008007FA05FC28EAF1
:100810000C0803FA05F548EA0508C6F800804D689B
:10082000ED0070D53E4DAE6946F00106AE61AD6992
:1008300024F0030605F0010500953A4D06EB050C82
:10084000DCF80850A607360F07FA06F825EA08056F
:10085000DFF8D480404503D14FF0000825E052E096
:10086000DFF8C880404502D14FF001081DE0DFF8F5
:10087000C080404502D14FF0020816E0DFF8B48096
:10088000404502D14FF003080FE0DFF8AC8040454F
:1008900002D14FF0040808E0DFF8A080404502D103
:1008A0004FF0050801E04FF0060808FA06F848EA9C
:1008B0000508CCF808804D68D9F80060ED034D4676
:1008C00001D5164300E096432E604D68DAF80060CB
:1008D000AD03554601D5164300E096432E604D68A2
:1008E000DBF80060ED025D4601D5164300E096435B
:1008F0002E604D68DEF80060AD02754601D51643E6
:1009000000E096432E60641C0A681646E2407FF4BD
:1009100029AFBDE8F88F000000040140000011106D
:10092000001002400000014000080140000C01409E
:10093000001001400014014000180140001C01405B
:100940008068084000D0012070470AB101617047FB
:100950000904FBE701488068704700000C00002094
:10096000704770472DE9F041016804464A694E68B6
:1009700090F83E000025D743FA050BD4F243D20588
:1009800008D46FF4807201254A6121680A6842F434
:1009900000420A60B90508D4F143C90505D42268AC
:1009A0006FF4007145F002055161790525D4F143DA
:1009B000C90522D4638D94F83D10226B202808D1FC
:1009C0003BB9212910D029290ED0282901D1212A6B
:1009D0000AD022686FF48061516145F00405102847
:1009E00006D0402804D008E0204601F005FF04E0CE
:1009F0002068016841F400710160380508D4F043B3
:100A0000C00505D421686FF4006045F00805486111
:100A1000002D07D0206C284320642046BDE8F0411B
:100A200001F05CBBBDE8F0812DE9F04702680021D0
:100A30005368C66A90F83E4090F83D50102C12D092
:100A4000402C10D0046C002C7DD05469E443A607E0
:100A50007AD4DE43B60577D4036C03B19169BDE85F
:100A6000F04701F0A5BE976951694FF42A0CC943BC
:100A70005FEAC1784FF02A4904D066452AD04E4536
:100A800028D010E0DE43B6050DD4C16A614501D11E
:100A9000012103E0C16A494501D10821C162BDE8D5
:100AA000F04701F0EFBD0E0716D4DE43B60513D4B0
:100AB000416CC9B21161416B09B1896A29B9816B75
:100AC000002907D0896A002904D00068416841F4F0
:100AD00000614160BDE8F0878E0706D4DE43B605AD
:100AE00003D4BDE8F04701F021BDFE43526876070C
:100AF0004FEA02521DD4002AECDB0A0608D4DA437E
:100B0000520505D4490705D5BDE8F04701F0B2BC50
:100B10004907DFD4D9438905DCD4212D05D0402CE9
:100B2000D8D1BDE8F04701F0F3BDBDE8F04701F0D2
:100B30005FBC002ACEDB4A060BD4DA43520508D448
:100B4000490708D501E00DE00EE0BDE8F04701F0EF
:100B5000DBBB4907BED4D9438905BBD4BDE8F04708
:100B600001F068BB916970E7E10606D4D9438905B5
:100B700003D4BDE8F04701F081BE2821212D27D004
:100B8000292D25D0650655D4DD436D0552D4640763
:100B900052D590F83D30448D002C9BD01269446AA8
:100BA0002270426A521C4262428D521E4285428D20
:100BB000002A8FD12A2B8DD10268536823F48063D9
:100BC00053602222026380F83D1000F04FF981E764
:100BD000250623D4DD436D0520D4640720D590F885
:100BE0003D30448D002CF2D0446A24781461426A6E
:100BF000521C4262428D521E4285428D002AE6D12D
:100C0000292BE4D10268536823F4806353602122C6
:100C1000026380F83D1000F02AF95BE76107D6D443
:100C2000D9438905D3D4418D0029D0D0416A0978B0
:100C300011610AE06107CAD4D9438905C7D4418D3F
:100C40000029C4D01169426A1170416A491C41628D
:100C5000418D491E41853DE77047000070B5040095
:100C600025D094F83D00002520B984F83C5020465A
:100C700000F0BEF8242084F83D002068016821F0CF
:100C8000010101602068016841F4004101602068B1
:100C9000016821F40041016000F018FA4D4A6168D2
:100CA000914201D84C4900E04C49884201D20120D0
:100CB00070BD4B492368B0FBF1F15E6826F03F063A
:100CC0000E435E606368934206D94FF496735943AE
:100CD0004FF47A73B1FBF3F12368491C1E6A26F0C6
:100CE0003F06314319626168914210D84900401EA5
:100CF000B0FBF1F2521CC2F30B02042A01D2042011
:100D000022E0B0FBF1F0401CC0F30B001CE0A26835
:100D1000F2B301EBC10303EB0116431EB3FBF6F381
:100D20005B1C43F480431B0549D092B301EBC10225
:100D300002EB0111401EB0FBF1F0401CC0F30B00B0
:100D400040F4804040F400402168CA694CF6FF73CB
:100D50009A431043C861D4E9071001432068026830
:100D600022F0C00211430160D4E90301014320686D
:100D7000826848F2FF339A4311438160D4E9050148
:100D800008432168CA6822F0FF021043C86001E0EE
:100D90000EE016E02068016841F001010160256461
:100DA000202084F83D00256384F83E50002070BD6B
:100DB00001EB4106431EB3FBF6F35B1CB3E70120D6
:100DC000C2E701EB4101401EB0FBF1F0401CC0F353
:100DD0000B00B7E7A086010080841E0000093D00DB
:100DE00040420F00704770477047704770470000DF
:100DF00010B586B000210091019102910391006825
:100E0000174988422AD1174CA06940F00800A06118
:100E1000A069694600F008000490C02000901220EC
:100E20000190032003901048FFF78EFCE06940F426
:100E30000010E061E069002200F400100490114607
:100E40001F2000F07BF81F2000F06AF800221146F6
:100E5000202000F073F8202000F062F806B010BDEA
:100E60000054004000100240000C014070477047E1
:100E70000248816802781144816070470C000020AC
:100E8000074810B5016841F010010160032000F02F
:100E900075F80F2000F006F800F024F8002010BDCF
:100EA0000020024070B50D4D04464FF47A71287849
:100EB000B1FBF0F00A490968B1FBF0F000F0ECFA80
:100EC00048B9102C07D200222146501E00F036F8F7
:100ED00000206C6070BD012070BD00000C0000207F
:100EE000180000200C4808B5816941F001018161BA
:100EF000816901F001010091C16941F08051C16136
:100F0000C06900F0805000900448416821F0E06121
:100F100041F00071416008BD001002400000014036
:100F2000002809DB00F01F020121914040098000E8
:100F300000F1E020C0F8001170470000F0B40E4B43
:100F40001B680C46C3F30223C3F10705042D00D927
:100F50000425191D072901D2002300E0DB1E01260C
:100F600006FA05F1491E214099409E40761E164022
:100F70003143F0BC02F020BD0CED00E0064900F06A
:100F8000070208684FF6FF03184040EA0220034AB0
:100F900010430860704700000CED00E00000FA0507
:100FA0002DE9F0470F46050061D0434E306800F050
:100FB0000700B84209D2306820F00700384330609B
:100FC000306800F00700B84251D128683B4C8107D7
:100FD00012D5400703D5606840F4E060606028786F
:100FE000000703D5606840F4605060606068A968DD
:100FF00020F0F000084360602878C00728D06868B7
:10100000012810D02168022810D0890700292EDA83
:10101000616821F0030101436160FFF79BFC80469A
:1010200041F288390DE021688903EFE78901EDE796
:10103000FFF790FCA0EB0801494502D90320BDE869
:10104000F0876068696800F00C00B0EB810FEFD1A9
:10105000306800F00700B8420BD9306820F0070074
:1010600038433060306800F00700B84201D00120FA
:10107000E5E72878400705D56068E96820F4E06076
:10108000084360602878000706D56068296920F465
:10109000605040EAC100606000F038F86168084ABA
:1010A000C1F30311515CC840064908600648006856
:1010B000FFF7F8FE0020C2E70020024000100240C7
:1010C000CE3E00081800002010000020044805490A
:1010D00000684968044AC1F30221515CC840704766
:1010E0001800002000100240DE3E000804480549B8
:1010F00000684968044AC1F3C221515CC840704786
:101100001800002000100240DE3E000812A185B049
:101110000FC98DE80F0014A0144A006804905168AC
:10112000134801F00C03042B10D0082B0ED1C1F38F
:101130008343C9031DF803000AD5516804AAC1F30B
:101140004041515C0A4A5043B0FBF1F005B0704792
:1011500008494843FAE700000203040506070809A6
:101160000A0B0C0D0E0F10100102000000100240BF
:1011700000127A0000093D002DE9F84F040070D0FC
:101180002078C04DC00749D06868C0F381000128AD
:1011900007D06868C0F38100022809D16868C003DD
:1011A00006D52868800339D560680028E7D035E087
:1011B0006068B0F5803F0BD010B1B0F5A02F11D012
:1011C000286820F480302860286820F4802002E01D
:1011D000286840F480302860606890B1FFF7BAFB5F
:1011E00006460AE0286840F480202860F0E700BF47
:1011F000FFF7B0FB801B642873D828688003F7D5FD
:101200000CE0FFF7A7FB064605E000BFFFF7A2FBD7
:10121000801B6428F0D828688003F7D420789A4E81
:1012200080074FF001094FF0000839D5686810F0C9
:101230000C0F07D06868C0F38100022809D16868E4
:10124000C00306D42868800714D52069012808D176
:1012500010E02069B0B1C6F80090FFF77BFB0746AD
:1012600005E00AE1FFF776FBC01B0228C4D8286816
:101270008007F7D52868616920F0F80040EAC100CE
:1012800028600DE0C6F80080FFF764FB074604E025
:10129000FFF760FBC01B022823D828688007F7D41B
:1012A000207800072CD57948A169D9B1C0F8009001
:1012B000FFF750FB074604E0FFF74CFBC01B02287A
:1012C0000FD8686A8007F7D571484FF4FA51006863
:1012D000B0FBF1F0009000BF0098411E0091FAD2DF
:1012E0000EE080E0C0F80080FFF734FB074604E022
:1012F000FFF730FBC01B022875D8686A8007F7D457
:101300002078400760D5E8690027C00008D4E86964
:1013100040F08050E861E869012700F080500090BB
:101320005C480168C90513D40168834641F48071A3
:101330000160FFF70FFB824606E000BFFFF70AFBE4
:10134000A0EB0A0064284ED8DBF80000C005F5D5F4
:10135000E06801280AD008B1052813D0286A20F0D7
:1013600001002862286A20F0040002E0286A40F0A8
:1013700001002862E06841F2883B98B1FFF7EAFA81
:1013800082460BE0286A40F004002862EEE700BFC6
:10139000FFF7E0FAA0EB0A0159455AD8286A8007FE
:1013A000F6D50CE0FFF7D6FA824605E0FFF7D2FA51
:1013B000A0EB0A0159454CD8286A8007F6D41FB122
:1013C000E86920F08050E861E06988B36968C1F39A
:1013D0008101022944D00228C6F8608004D0FFF7BA
:1013E000B9FA044638E034E0FFF7B4FA074604E0FF
:1013F000FFF7B0FAC01B02282BD828688001F7D469
:10140000206AB0F5803F05D16868A16820F40030FB
:1014100008436860D4E908010843696821F474113D
:1014200008436860C6F86090FFF794FA044606E047
:1014300025E000BFFFF78EFA001B022809D82868B4
:101440008001F7D51BE000BFFFF784FA001B0228DC
:1014500002D90320BDE8F88F28688001F4D40EE09B
:101460000128F7D06868226A00F48031914204D1E3
:10147000616A00F47010884201D00120EAE7002080
:10148000E8E70000001002400000424280044242AF
:10149000180000200070004010B5401EB0F1807FA1
:1014A00001D3012010BD4FF0E02460610F216017CF
:1014B00002F082FA0020A06107202061002010BD08
:1014C0007047704770B590F83C20012A2CD0012459
:1014D00080F83C40022280F83D2003685A689D68ED
:1014E00022F070060A6832435A60104B02689A4232
:1014F0000ED00F4B9A420BD0B2F1804F08D00D4B5B
:101500009A4205D00C4B9A4202D00C4B9A4204D11D
:10151000496825F080031943916080F83D4000211F
:1015200080F83C10084670BD022070BD002C0140C0
:10153000003401400004004000080040000C00405E
:1015400010B5040003D094F83D0010B107E001206D
:1015500010BD002084F83C00204600F01FF8022057
:1015600084F83D00211D206801F082FF012084F8ED
:10157000460084F83E0084F83F0084F8400084F878
:10158000410084F8420084F8430084F8440084F861
:10159000450084F83D00002010BD000008B500683B
:1015A0000B49884212D10B48C16941F01001C16159
:1015B000C069002200F01000009002213620FFF7E1
:1015C000BDFCBDE808403620FFF7AABC08BD0000FE
:1015D000001000400010024090F83D10012901D099
:1015E00001207047022180F83D100168CA6842F06E
:1015F0000102CA6000680E4988420ED00D49884237
:101600000BD0B0F1804F08D00B49884205D00B4970
:10161000884202D00A49884204D1816801F007015A
:10162000062903D0016841F00101016000207047E4
:10163000002C01400034014000040040000800403C
:10164000000C00402DE9F0410D46040003D094F851
:101650003D0018B108E00120BDE8F081002084F8C9
:101660003C00204600F040F8022084F83D0020684D
:10167000816844F2070291438160211D206801F0D6
:10168000F7FE226890689169166A2B68AF69034378
:1016900040F20330814341EA0721A868EF6908431B
:1016A0004FF6FC418843E96840EA07200143286976
:1016B0002F6A000140EA0730084369686D6926F027
:1016C000220646EA0515294393602268906154F882
:1016D000460B0162012004F81F09E0752076E076D0
:1016E0002077A0750020B7E710B586B000210091E3
:1016F0000191029103913C4A01683C483C4C914263
:101700001ED1816941F400618161816901F4006148
:101710000491816941F0400181618069694600F06E
:10172000400004904FF4206000903248FFF70CF81E
:10173000606820F0C00040F0E06040F0C0001EE0B3
:101740002D4A91421ED1C16941F00401C161C169B4
:1017500001F004010491816941F0200181618069F7
:10176000694600F0200004904FF440500090234858
:10177000FEF7EAFF606840F0E06040F4805060608F
:1017800006B010BD1E4A914214D1C16941F0080152
:10179000C161C16901F008010491816941F004014E
:1017A00081618069694600F0040004900320009084
:1017B000144816E0144A9142E2D1816941F4005183
:1017C0008161816901F400510491816941F0100146
:1017D00081618069694600F010000490C02000908B
:1017E0000A48FEF7B1FFCBE7002C01400010024091
:1017F00000000140001801400008004000140140B2
:10180000000C00400008014000340140001001407D
:1018100070B590F83E60044690F83F5090F8423022
:1018200090F84320022021B104290ED0012E1BD1B3
:1018300014E0012E18D1012B16D184F83E0084F853
:10184000420001220021206820E0012D0CD1012A54
:101850000AD184F83F0084F8430014E0012D03D13D
:10186000012B01D1012A01D0012070BD84F83E0076
:1018700084F83F0084F8420084F8430001220021EC
:10188000206801F03BFE01220421206801F036FEB1
:101890002068016841F001010160002070BD7047BF
:1018A00070B50446006801694FF00005C943890717
:1018B00015D4C168C943890711D4E91E016101200B
:1018C0002077206880698007204602D0FFF7E7FF75
:1018D00004E000F0E1F8204600F08EF9257720685A
:1018E0000169C943490717D4C168C943490713D4DB
:1018F0006FF004010161022020772068806910F4F4
:10190000407F204602D0FFF7CAFF04E000F0C4F891
:10191000204600F071F9257720680169C94309075D
:1019200016D4C168C943090712D46FF008010161D8
:10193000042020772068C0698007204602D0FFF786
:10194000AEFF04E000F0A8F8204600F055F9257736
:1019500020680169C943C90617D4C168C943C906CB
:1019600013D46FF010010161082020772068C0694E
:1019700010F4407F204602D0FFF791FF04E000F012
:101980008BF8204600F038F9257720680169C943B3
:10199000C90708D1C168C943C90704D1891E0161BB
:1019A000204600F085F920680169C943090609D479
:1019B000C168C943090605D46FF080010161204662
:1019C000FFF77EFD20680169C943490609D4C16853
:1019D000C943490605D46FF040010161204600F07B
:1019E00068F920680169C94389060BD4C168C943F5
:1019F000890607D46FF0200101612046BDE87040E0
:101A0000FFF75FBD70BD000010B586B000210091EA
:101A100001910291039102681B4902241B48B2F113
:101A2000804F23D01A4B9A421ED18A6942F0040299
:101A30008A618A6902F0040204928A6942F008020B
:101A40008A618969039401F008010491C021CDE9FC
:101A500000146946FEF778FE0320CDE900046946CC
:101A60000C480394FEF770FE06B010BD8A6942F080
:101A700004028A618969039401F00401049104213C
:101A8000CDE900146946EDE700100240000801406E
:101A900000040040000C0140704770B5044690F807
:101AA0003C000D4601280AD0012084F83C0042B1D8
:101AB000042A18D0082A2AD00C2A4DD139E0022055
:101AC00070BD206801F028FD2068816941F008019F
:101AD00081612068816921F0040181612068816948
:101AE0002A69114311E0206801F046FD20688169F0
:101AF00041F4006181612068816921F48061816124
:101B0000206881692A6941EA0221816124E0206814
:101B100001F068FD2068C16941F00801C1612068D9
:101B2000C16921F00401C1612068C1692A691143BA
:101B300011E0206801F08AFD2068C16941F400616C
:101B4000C1612068C16921F48061C1612068C169F7
:101B50002A6941EA0221C161002084F83C0070BD7D
:101B600010B5040003D094F83D0010B107E0012047
:101B700010BD002084F83C00204600F01FF8022031
:101B800084F83D00211D206801F072FC012084F8DA
:101B9000460084F83E0084F83F0084F8400084F852
:101BA000410084F8420084F8430084F8440084F83B
:101BB000450084F83D00002010BD000008B5016814
:101BC0000B48B1F1804F0BD00A4A914207D1C1694D
:101BD00041F00201C161C06900F00200009008BD3F
:101BE000C16941F00101C161C06900F00100F5E780
:101BF00000100240000400407047000010B5044689
:101C0000022249B104290ED0082913D094F84100CA
:101C1000012816D0012010BD94F83E000128F9D10A
:101C200084F83E200FE094F83F000128F2D184F8B8
:101C30003F2008E094F840000128EBD184F84020D0
:101C400001E084F841200122206801F057FC13498B
:101C50002068134A884201D0904203D1436C43F478
:101C600000434364206888420DD090420BD0B0F10D
:101C7000804F08D00B49884205D00B49884202D0DA
:101C80000A49884204D1816801F00701062903D07E
:101C9000016841F001010160002010BD002C0140ED
:101CA000003401400004004000080040000C0040E7
:101CB0007047704770477047F8B50268044610686F
:101CC000D168536910F00F0F4FF0000553D003F0A7
:101CD000010601F4907737435FD0C20705D0CA05EB
:101CE00003D5226C42F001022264420705D5DA07CF
:101CF00003D0226C42F002022264820705D5DA0783
:101D000003D0226C42F004022264020707D501F0DE
:101D10002002324303D0226C42F008022264226C7B
:101D2000002A34D0800604D5880602D5204601F06A
:101D3000D5FC20684069216CC0F38010090700D4ED
:101D400030B3204601F0B2FC2068416949061BD53A
:101D5000416921F040014161A06BA8B1584941633C
:101D6000A06BFEF755FC002811D0A06B416B01B0B1
:101D7000BDE8F040084783060FD58B060DD52046F9
:101D8000BDE8F84001F0AABC2046FFF794FFF8BD7B
:101D90002046FFF790FF2564F8BD266B2023012E17
:101DA00052D1C60650D5CE064ED510685068009068
:101DB000506940062AD5A16B086840680004000CF1
:101DC000EAD0A68D8642E7D9E0858869202818D018
:101DD000D06820F48070D0602068416921F0010152
:101DE00041612068416921F04001416184F83E3041
:101DF00025632068C16821F01001C160A06BFEF767
:101E0000E3FBA08DE18D401A81B219E0A08DE18D38
:101E1000401A81B2E08D0028BED00029BCD0D06825
:101E200020F49070D0602068426922F00102426183
:101E300084F83E3025632068C26822F01002C26038
:101E40002046FFF737FFF8BD05062BD50D0629D52F
:101E500094F83D002128F6D1A068B0F5805F01D14B
:101E60002069B0B1206A411C216221680078486075
:101E7000E08C401E0004000CE084E4D12068C168BE
:101E800021F08001C1602068C16841F04001C1605B
:101E9000F8BD206A0088C0F308005060206A801CEA
:101EA0002062E5E74006F3D54806F1D5D168204623
:101EB00021F04001D16084F83D3000F0A3F8F8BD76
:101EC0009D36000870B5040004D094F83D0000254C
:101ED00010B106E0012070BD84F83C50204600F0AF
:101EE00023F8242084F83D002068C16821F40051C3
:101EF000C160204601F04EFC2068016921F4904148
:101F000001612068416921F02A0141612068C168AE
:101F100041F40051C1602564202084F83D0084F81C
:101F20003E00002070BD000030B585B00024009454
:101F30000194029403940068184988422CD11848EF
:101F4000816941F480418161816901F4804104919A
:101F5000816941F0040181618069124D00F0040043
:101F600004904FF400700090022001900320039031
:101F700069462846FEF7E8FB2815CDE900046946C6
:101F800028460294FEF7E0FB002211462520FEF7CA
:101F9000D5FF2520FEF7C4FF05B030BD0038014055
:101FA000001002400008014090F83E30202B0ED176
:101FB00059B152B190F83C30012B08D0012380F880
:101FC0003C300023036301F041BC01207047022034
:101FD000704700000068084988420BD107484178E3
:101FE000312901D10121017004490122491C044811
:101FF000FFF7DABF704700000038014009000020F9
:10200000640300207047FEE70148FEF7ABBC000008
:10201000180100200148FEF707BD0000180100204C
:1020200038B5406A002190F83D202B4B46F2A814A9
:102030001B68B3FBF4F3C3EBC30303EB830300930D
:102040003BB15B1E009303681B689B0505D5009B95
:10205000F6E7036C43F020030364436B03B199621A
:10206000836B03B1996203681C6824F480641C606C
:102070004185436B03B15963836B03B159630368B3
:102080001C6824F001041C6090F83D402023602C63
:102090000BD0282434EA02020FD080F83D3080F8BB
:1020A0003E1000BFFEF7D8FD38BD80F83D3080F807
:1020B0003E100164FEF754FC38BD0268136843F01B
:1020C000010313600268136843F4806313600163C3
:1020D00080F83D40E6E700001800002070B5044697
:1020E00090F83D0094F83E10102901D0402906D107
:1020F000222804D121680A6822F400620A6028219B
:1021000031EA00024FF000054FF0200626D021688A
:102110004968090505D4602803D084F83D6084F837
:102120003E50256320684168090537D5416821F490
:1021300000614160606B3D4990F82120012A11D077
:102140004163606BFEF764FA38B32068016821F0E0
:102150000101016084F83D60606B1CE0256384F838
:102160003D10DFE7A06B4163A06BFEF751FAA0B111
:1021700020684169C943490605D40069616A08704D
:10218000606A401C60622068016821F00101016002
:1021900084F83D60A06B416B884710E094F83D10D7
:1021A000602910D04169C943490605D40069616AB4
:1021B0000870606A401C60622046FEF74DFD206C8E
:1021C000C1071CD115E084F83D6025644169C9430D
:1021D000490605D40069616A0870606A401C606243
:1021E0002068016821F0010101602046FEF7B8FB7C
:1021F000E5E7810703D4410701D4000704D520682F
:10220000416821F4E061416094F83D00216C490788
:102210000BD5282809D10648E062256384F83D6083
:1022200084F83E502046FEF7DDFD70BD21200008F9
:102230000000FFFF10B5C26A438D0168042B06D071
:10224000438D032B08D0438D022B1DD012E04A682A
:1022500022F480624A600CE04B6823F480634B6098
:10226000042A06D0022A04D001680A6822F4806297
:102270000A6001680969426A1170416A491C416239
:10228000418D491E418510BD012A30D0102A2ED023
:10229000042A30D0022A2ED00A6842F400720A6062
:1022A00001680969426A1170416A491C4162428DA4
:1022B000521E4285026812690A70416A491C4162D5
:1022C000418D491E418501684A6822F440724A6086
:1022D000202180F83D1090F83E200021402A80F80F
:1022E0003E100CD012210163FEF77DFD10BD0A687F
:1022F00022F48062D3E70A6842F48062CFE7016388
:10230000FEF773FD10BD000038B590F83D1022298E
:1023100014D1418D032912D901680969426A1170EB
:10232000416A491C4162418D491E4185418D032905
:1023300004D10068416821F48061416038BDC26AFF
:10234000022AFBD0012901D00029F7D1274946F202
:10235000A81300220968B1FBF3F101EB81010091A0
:1023600001682023009C641E009422D00C68A40500
:10237000F8D40C6824F480640C6001684C6824F480
:10238000E0644C6001680969446A2170416A491C33
:102390004162418D491E418580F83D3090F83E10E4
:1023A00080F83E2040291DD012210163FEF71BFD5D
:1023B00038BD046C44F0200404644C6824F4E064E8
:1023C0004C6001680969446A2170416A491C416294
:1023D000418D491E418580F83D3080F83E20FEF752
:1023E0003BFC38BD0263FEF700FD38BD180000203D
:1023F00010B5C26A90F83D1021290BD1418D51B121
:10240000416A026809781161416A491C4162418D43
:10241000491E418510BD20230021082A13D0202AFF
:1024200011D012F5803F0ED00268546824F4E064A5
:1024300054601122026380F83E1080F83D3000BFE6
:10244000FEF7D2FC10BD0268546824F4E0645460C6
:102450000268146844F400741460016380F83D302D
:1024600090F83E2080F83E10402AE9D1FEF7BEFCED
:1024700010BD000010B590F83D1090F83E30C26AD3
:10248000048DB4B1212903D0402B11D122290FD1C1
:10249000418DE1B390F83E10402942D0416A026874
:1024A00009781161416A491C4162418D491E41858B
:1024B00010BD2129E8D120230021082A13D0202A89
:1024C00011D012F5803F0ED00268546824F4E06405
:1024D00054601122026380F83E1080F83D3000BF46
:1024E000FEF782FC10BD0268546824F4E064546076
:1024F0000268146844F400741460016380F83D308D
:1025000090F83E2080F83E10402AE9D100E002E039
:10251000FEF76CFC10BD0068416821F480614160E9
:1025200010BDBDE8104000F0F3B8000078B590F899
:102530003E50C26A046B90F83D6000230168222E71
:1025400073D1066D0EB9402D6FD0056D1DB90569AB
:10255000B5F5404F1BD0458D95B3468D484D012EA6
:1025600020D0448D022C4DD00C6844F480640C6063
:1025700001684C68240579D5AA4273D0012A71D02C
:10258000082A6FD0102A6DD0202A6BD06EE04A69DD
:102590008A6900920A6842F480720A60016D491CDF
:1025A000016578BDAA4214D10A6822F480620A60EB
:1025B00001684A68120504D50A6822F4806217E0AF
:1025C000FFE74A698A6900920A6842F400720A6069
:1025D00050E0082A10D0202A0ED0122C0AD0042A4B
:1025E00003D0022A01D0102AE6D10A6842F48062A0
:1025F0000A603BE0012ADFD00A6822F480620A60A8
:102600000168DEE7042A11D0022A0FD0102A0DD06B
:102610000C6844F400640C6001684C698C69009497
:102620000C6824F480640C6008E025E00C6844F435
:1026300080640C6001684C698969009101684C688C
:10264000240517D5AA4207D0012A05D0082A03D0AD
:10265000102A01D0202A0DD14A6842F480524A60E3
:1026600008E0FFE74A6842F480524A6001684A691C
:1026700089690091036578BD48698869009078BDD3
:102680000000FFFF90F83E10402910D00169B1F51D
:10269000804F19D0016DA9B3016D012910D1416C92
:1026A0005FF0F10201F4407142EAD11106E0016DE0
:1026B0000029416C05D0C9B241F0010100680161F7
:1026C000704701F0FE01F9E790F83D102129416CB7
:1026D00009D0C9B241F0010102681161416B29B111
:1026E000896A49B902E001F0FE01F5E7816B002932
:1026F000E6D0896A0029E3D00068416841F40061AE
:1027000041607047FFE7416CF02201F44071CBE774
:1027100010B590F83D10026D22B3026D012A2FD042
:10272000026D022A1DD122292FD0428D0AB1212902
:1027300033D0428D002A14D1212912D101684A6870
:1027400022F4E0624A6001680A6842F400720A609A
:1027500000210163202280F83D2080F83E10FEF722
:1027600045FB10BDC16C0129816C02D0C1F307216A
:1027700008E00268C9B21161016D891C016510BDD4
:10278000816CC9B20268116104E001680A6842F410
:1027900080720A60016D491CF0E7416A026809789D
:1027A0001161416A491C4162418D491E418510BD3C
:1027B00038B50C4690F83D20002128259543026845
:1027C0000B4605D051699169009180F83C3038BDC5
:1027D000556825F480655560E243540700D5012112
:1027E000120601D5828900E0028B80F83C3092B25B
:1027F000FEF7B7F838BD00002DE9F04190F83D40F4
:10280000C26A002320261C4F01686FF48065082AE5
:1028100001D0202A01D1282C04D0212C16D04D61C2
:10282000BDE8F081C7624A6822F4E0624A6001684C
:102830004D6101680A6822F480620A60036380F8CF
:102840003D6080F83E30FEF7CDFAE9E7C76221220D
:10285000026380F83D6080F83E304A6822F4E0620E
:102860004A6001684D6101680A6822F480620A606A
:10287000FEF7FDFAD4E700000000FFFFF8B590F87E
:102880003D6004460068416821F4E06141602068D1
:10289000002541690091016841F001010160206853
:1028A000016821F48061016020684168090520D534
:1028B000474F222E48D02A2E46D0616B09684968BE
:1028C0006185618D19B1216C41F004012164416879
:1028D00021F400614160606BFDF732FF012808D0F0
:1028E000606B4763606BFDF793FE10B1606B416BEB
:1028F0008847608D08B320684169C943490708D4F7
:102900000069616A0870606A401C6062608D401EE8
:10291000608520684169C943490608D40069616A35
:102920000870606A401C6062608D401E6085608D2A
:1029300018B1206C40F004002064206C00B32046E5
:10294000BDE8F840FFF7CABBA16B0968496861851B
:10295000618D19B1216C41F004012164416821F4B9
:1029600000614160A06BFDF7EBFE0128C1D0A06BB8
:102970004763A06BFDF74CFE0028BAD0A06BB6E70A
:102980002A2E06D12563282084F83D002046FEF734
:102990006DFA94F83D10202028290DD0216B2229B2
:1029A00001D0222E07D1256384F83D0084F83E50E3
:1029B0002046FEF75BFAF8BD0649E162256384F81C
:1029C0003D0084F83E502046FEF70CFAF8BD0000AA
:1029D000212000080000FFFF70B51F4C0121204698
:1029E00003220568A6691D48022316B1012E03D0F3
:1029F00000E045B1037002E0012D02D00270427088
:102A000070BD017070BD144D66696D6816B1012E00
:102A100009D00DE0012D0BD00F4D2669AD684EB1E8
:102A2000012E0AD007E0012DEBD00270437070BD7B
:102A30000370FBE735B1037002E0012DE1D00270B5
:102A4000417070BDE268012ADBD004210170416849
:102A5000491C416070BD0000BC0000200000002047
:102A6000F0B585B0002428480094019402940394A2
:102A7000816941F010018161816901F010010491C7
:102A8000816941F004018161816901F004010491CF
:102A9000816941F008018161816901F008010491B7
:102AA000816941F040018161816901F04001049137
:102AB000816941F0200181618069144F00F020009C
:102AC00040F23F350490002229463846FDF73DFF8D
:102AD0000126CDE9005602250320CDE902506946C2
:102AE0003846FDF731FE7F208DE831006946084801
:102AF000FDF72AFE009669460648CDE90145FDF737
:102B000023FE05B0F0BD000000100240001001409F
:102B100000140140001801400D4810B50B49016038
:102B20000C49416000214FF480428160C0E90312EA
:102B300041618161C1610162FEF790F8002803D014
:102B4000BDE81040FDF73EBD10BD00000054004040
:102B500018010020A086010010B58CB02421684621
:102B6000FDF754FB00241648099414490A94C0E95F
:102B700000144FF6FF71C0E90241046144618461B1
:102B80000320CDE900040120CDE902040494CDE93D
:102B90000540079469460A480894FEF753FD08B1BA
:102BA000FDF710FD099409A905480A94FEF78AFC6F
:102BB000002801D0FDF706FD0CB010BD002C01402F
:102BC0006C01002010B58AB0002407941C216846CF
:102BD0000894FDF71BFB16484FF080410160472128
:102BE000C0E9011444F61F61C0E903148461FEF7D3
:102BF000B7FF08B1FDF7E6FC079407A90C48089455
:102C0000FEF760FC08B1FDF7DDFC6020CDE90004B3
:102C100002940822694606480494FEF73EFF08B174
:102C2000FDF7D0FC0248FEF7EFFE0AB010BD000031
:102C3000B401002010B58AB0002407941C21684616
:102C40000894FDF7E3FA2248204901604721C0E9D2
:102C5000011440F2E731C0E903148461FEF780FFFC
:102C600008B1FDF7AFFC079407A919480894FEF7CF
:102C700029FC08B1FDF7A6FC6020CDE90004029410
:102C80000022694612480494FEF707FF08B1FDF7D9
:102C900099FC042269460E48FEF7FFFE08B1FDF7D5
:102CA00091FC082269460A48FEF7F7FE08B1FDF7D5
:102CB00089FC0C2269460648FEF7EFFE08B1FDF7D5
:102CC00081FC0348FEF7A0FE0AB010BD00040040DE
:102CD000FC01002010B58CB024216846FDF796FA5F
:102CE00000241648099414490A94C0E900144FF6C8
:102CF000FF71C0E90241046184610320CDE9000451
:102D00000120CDE902040494CDE905400794694609
:102D10000A480894FEF796FC08B1FDF753FC0994A5
:102D200009A906480A94FEF7CDFB002801D0FDF75B
:102D300049FC0CB010BD0000000800404402002017
:102D400010B58CB024216846FDF760FA00241648BF
:102D5000099414490A94C0E900144FF6FF71C0E9C0
:102D60000241046184610320CDE900040120CDE922
:102D700002040494CDE90540079469460A48089482
:102D8000FEF760FC08B1FDF71DFC099409A906488F
:102D90000A94FEF797FB002801D0FDF713FC0CB056
:102DA00010BD0000000C00408C0200201CB5002467
:102DB0000E4800940C49019401604721C0E90114B8
:102DC00041F287318461C160FEF7BAFB08B1FDF7BB
:102DD000F9FB0094694605480194FEF773FB00284F
:102DE00001D0FDF7EFFB1CBD00100040D402002015
:102DF00010B58CB024216846FDF708FA0024164867
:102E0000099414490A94C0E900144FF6FF71C0E90F
:102E100002410461446184610320CDE90004012082
:102E2000CDE902040494CDE90540079469460A48B7
:102E30000894FEF707FC08B1FDF7C4FB099409A943
:102E400005480A94FEF73EFB002801D0FDF7BAFBC7
:102E50000CB010BD003401401C0300200C4810B51C
:102E60000A4901604FF4E1314160002181600C2288
:102E7000C160C0E904128161C161FFF723F8002835
:102E800003D0BDE81040FDF79DBB10BD00380140E8
:102E900064030020FEE7000070B5084D04460122DF
:102EA00011462846FDF751FD002202212846FDF774
:102EB0004CFD034960420968C86370BD00100140C1
:102EC000FC01002070B5084D04460022012128466F
:102ED000FDF73BFD012202212846FDF736FD0348A0
:102EE0000068C46370BD000000100140FC010020B8
:102EF000002801DDFFF7E6BF01DAFFF7CDBF00F0E4
:102F000001B8000010B5084C002201212046FDF751
:102F10001CFD002202212046FDF717FD0349002079
:102F20000968C86310BD000000100140FC010020CA
:102F300070B5084D0446012204212846FDF705FD21
:102F4000002208212846FDF700FD03496042096878
:102F5000086470BD00100140FC01002070B5084DF0
:102F60000446002204212846FDF7EFFC0122082137
:102F70002846FDF7EAFC03480068046470BD0000C1
:102F800000100140FC010020002801DDFFF7E6BF32
:102F900001DAFFF7CDBF00F001B8000010B5084C12
:102FA000002204212046FDF7D0FC00220821204603
:102FB000FDF7CBFC034900200968086410BD000040
:102FC00000100140FC01002070B5084D04460022AD
:102FD00010212846FDF7B9FC012220212846FDF7E3
:102FE000B4FC034960420968486370BD00100140A9
:102FF000FC01002070B5084D04460122102128462E
:10300000FDF7A3FC002220212846FDF79EFC034883
:103010000068446370BD000000100140FC01002006
:10302000002801DDFFF7E6BF01DAFFF7CDBF00F0B2
:1030300001B8000010B5084C002210212046FDF711
:1030400084FC002220212046FDF77FFC034900205C
:103050000968486310BD000000100140FC01002019
:1030600070B5084D0446012211022846FDF76DFC9B
:10307000002269152846FDF768FC0349604209688B
:10308000886370BD00100140FC01002070B5084D40
:10309000044600224FF480712846FDF756FC0122B9
:1030A00051022846FDF751FC02480068846370BD58
:1030B00000100140FC010020002801DDFFF7E6BF01
:1030C00001DAFFF7CDBF00F001B8000010B5084CE1
:1030D00000224FF480712046FDF737FC0022611575
:1030E0002046FDF732FC034900200968886310BDC3
:1030F00000100140FC010020FEE70000012202490F
:103100000248FEF751BF00000A00002064030020BF
:10311000704700000E480268506A404201B20D48F4
:103120000160002151620C4A1268536A5B421BB273
:1031300083605162094A1268536A1BB2036151628B
:10314000074A1268536A5B421BB28361516270473F
:103150008C020020D80000201C0300206C010020FD
:1031600044020020F0B523480368586A22494042CF
:1031700000B2086021485C6AD0E90052644224B27F
:10318000E6172C197241C0E9004200225A621C4B1A
:103190001B685C6A644224B28C60D0E902645D6A98
:1031A0006D422DB2EF1775197C41C0E902545A6285
:1031B000144B1B685C6A24B20C61D0E904645D6A3C
:1031C0002DB2EF1775197C41C0E904545A620E4BB9
:1031D0001B685C6A644224B28C61D0E906615C6A57
:1031E000644224B2E51734196941C0E906415A62C4
:1031F000F0BD00008C020020D8000020F800002064
:103200001C0300206C0100204402002070B5134D07
:1032100001212846FDF794FB114C0221A0612846AC
:10322000FDF78EFB606104212846FDF789FB2061D4
:1032300008212846FDF784FBE06010212846FDF7B1
:103240007FFBA06020212846FDF77AFB60604021CB
:103250002846FDF775FB206070BD0000001401409A
:10326000BC0000207047000008210148FEF7C6BCE2
:10327000B401002002494FF42F700968C8637047F9
:10328000B4010020024940F6C4100968C8637047C1
:10329000B401002010B5FFF7B9FFFFF73BFFFFF7C0
:1032A0009BFBFDF787F800F04BFBFDF7E7F80548BF
:1032B0000068642802D1044902200870BDE810406B
:1032C000FFF7E0BF040000201C000020094890F92F
:1032D0000000012807D0022807D0032807D00428BF
:1032E00007D1FFF7D7BF00F007B800F07DB800F0B6
:1032F0002DB870471C00002010B5FFF787FFFFF7BF
:1033000009FFFFF769FBFDF71FF800F019FBFDF758
:10331000B5F8FFF7B7FF0A4801680A48B1F5167F0C
:1033200001D10221017008490978012906D14168BB
:10333000002903D1032101700121416010BD00006B
:10334000040000201C0000200900002010B5234CC0
:10335000E06880B9FDF7B0F8FFF7DCFE00F0F0FAA6
:10336000FDF78CF81E48416829B9C16819B941694F
:1033700009B9C06970B3E06801282ED1A068F028AF
:1033800004DD0421174A217000211160AA280DDAFA
:10339000FFF770FFA068401CA060FFF7BBFE002095
:1033A000FCF7CAFF00F0CCFAFDF768F8A068AA386D
:1033B000462812D8FFF766FFA068401CA060FFF700
:1033C000A9FE0020FCF7B8FF00F0BAFABDE81040F3
:1033D000FDF754B80120E060D0E710BD1C000020CC
:1033E000D80000200400002010B5FDF737F8BDE834
:1033F0001040FFF747BFFDF73BBD30B58FB0282128
:103400006846FCF703FF14210AA8FCF7FFFE012120
:103410000804CDE900100024029402250491CDE9AE
:1034200007504FF4E01009906846FDF7A5FE08B17B
:1034300072B6FEE70F20CDE90A054FF48060CDE9B2
:103440000C4002210AA80E94FDF7AAFD002801D025
:1034500072B6FEE70FB030BD7047000010B50348EC
:10346000FEF71EFABDE81040FFF730BFD40200207F
:10347000F0B502681C4B1D4D1D4E1E4F1E4C4FF0EB
:10348000804C984209D0A04207D0604505D0A842A0
:1034900003D0B04201D0B84204D122F0700E4A6885
:1034A00042EA0E02984209D0A04207D0604505D0FA
:1034B000A84203D0B04201D0B84203D122F44075F3
:1034C000CA682A434D6922F080022A4302608A6852
:1034D000C2620A688262984201D0A04201D10969A1
:1034E000016301214161F0BD002C01400004004056
:1034F00000080040000C00400034014010B501F00D
:103500001F030121046A99408C430462016A9A40B6
:103510001143016210BD0000F0B5026A22F0010201
:103520000262036A42688469124E24F073050C68D3
:103530002C4323F002058B682B430D4DA84201D08C
:10354000B04205D123F00807CB683B4323F00403C6
:10355000A84201D0B04205D14D6922F44072154312
:103560008A692A4342608461496841630362F0BD0D
:10357000002C014000340140F0B5026A22F0100234
:103580000262026A436884690D6824F4E64444EAEE
:1035900005248D6822F0200242EA05120F4D104EDC
:1035A000A84201D0B04206D1CF6822F0800242EAA0
:1035B000071222F04002A84201D0B04207D14D6963
:1035C00023F4406343EA85038D6943EA850343603E
:1035D0008461496881630262F0BD0000002C0140F3
:1035E00000340140F0B5026A22F480720262026A7D
:1035F0004368C46922F4007224F073050C68124E0B
:103600002C438D6842EA05220E4DA84201D0B042FB
:1036100006D1CF6822F4006242EA072222F48062D7
:10362000A84201D0B04207D14D6923F4405343EA88
:1036300005138D6943EA05134360C4614968C1639A
:103640000262F0BD002C01400034014030B5026A36
:1036500022F480520262046A4268C3690D6823F44E
:10366000E64343EA05238D6824F4005444EA053414
:10367000084DA84202D0084DA84204D14D6922F459
:10368000804242EA85124260C36149680164046273
:1036900030BD0000002C01400034014010B5406AEC
:1036A0000021C185C184FEF706FB10BD0168CA6810
:1036B00022F49072CA6001684A6922F001024A61EC
:1036C000016B012904D10168CA6822F01002CA60A6
:1036D000202180F83E1000210163704708B590F862
:1036E0003E10222901D0022008BD82684FF4805389
:1036F0009A4201D1016921B1816A9A421BD04AB133
:103700000AE00268816A5268C2F308020A80816A8C
:10371000891C08E0026972B10268526802F07F02F7
:103720000A70816A491C8162C18D491E0904090C15
:10373000C18503D019E002685268F1E70168CA68E0
:1037400022F02002CA600168CA6822F48072CA604E
:1037500001684A6922F001024A61202180F83E1086
:10376000016B012903D0FEF735FC002008BD0021C4
:1037700001630168CA6822F01002CA6001680A6821
:10378000D20602D50A6849680091818DFEF792FA47
:10379000EBE7000070B5044600680169E26821F4B7
:1037A0004051114301612169A068084361690843E0
:1037B0002168CA6841F20C639A430243CA602068D8
:1037C0004169A26921F44071114341611E49206899
:1037D000884202D1FDF78AFC01E0FDF777FC00EB9F
:1037E000C00101EB0012606864218000B2FBF0F3BD
:1037F000B3FBF1F36FF018067343B2FBF0F5B2FBC5
:10380000F0F605EB8305322303EB0515B5FBF1F567
:10381000B6FBF1F605F0F00505EB0615B2FBF0F688
:10382000B2FBF0F0B0FBF1F06FF01802504306EB82
:10383000800003EB0010B0FBF1F0216800F00F00F6
:103840002844886070BD0000003801408162828594
:10385000C28500210164222280F83E2080F83C10BD
:103860000168CA6842F48072CA6001684A6942F01D
:1038700001024A610068C16841F02001C160002076
:10388000704700000148FEF717BA000064030020EB
:10389000FEE770B50B46C56804460561114618463B
:1038A00000F0A0FA06462946E06000F09BFAA16805
:1038B00000F09AF905463046216800F095F929464E
:1038C00000F0BCF8E0613046616800F08DF9616994
:1038D00000F0B4F801466061A06980F0004000F09B
:1038E0004FFA03D2A06980F0004107E0D4E9050156
:1038F00000F046FA01D8A16900E061696161E06900
:1039000000F09CF80146E061206A80F0004000F081
:1039100037FA03D2206A80F0004007E0D4E90701BB
:1039200000F02EFA01D8206A00E0E069E06170BD85
:1039300030B5DDE903450562846180E80E0030BDE5
:1039400070B51B4C206800F003F90546606800F074
:10395000FFF801462A461748FFF79BFFA06800F0D2
:10396000F7F80546E06800F0F3F8014611482A46EA
:103970002430FFF78EFF206900F0EAF80546606901
:1039800000F0E6F801460B482A464830FFF781FF71
:10399000A06900F0DDF80546E06900F0D9F82A4694
:1039A0000146BDE8704003486C30FFF772BF00006D
:1039B000D80000202C0000200907090E002804DB95
:1039C00000F1E02080F80014704700F00F0000F1D3
:1039D000E02080F8141D7047FDF752FA01221449C7
:1039E0001448FEF7E1FAFFF708FDFFF739F8FFF793
:1039F000B3F8FFF71FF9FFF76DF9FFF7A1F9FFF72C
:103A0000F7F9FFF7DFF8FFF7D1F9FFF785F8FFF7D0
:103A100025FA0948FDF7E0FDFCF794FDFCF708FDE9
:103A2000FCF758FCFFF76AFBFFF71EFCFEE70000FF
:103A30000A00002064030020D402002090EA010F55
:103A400048BF81F0004100F1D481421A3CBF801A86
:103A500089184FEAD0524FF07F4C1CEA410FA2EB7D
:103A6000D15318BF9CEA026F00F03B804FF0004C2E
:103A70004CEA00204CEA012121FA03FC10EB0C0C6B
:103A80001ED202F1FF325FEA1C2040EBC25038BF69
:103A900070471CF07F0F4FEA400C18BFBCF17F4FFE
:103AA00038BF7047C3F12003994008BF20F00100E0
:103AB000BCF17F4F38BF7047A0F1C04000F05BB948
:103AC0004FEA3C00000A40EBC25028BF1CF0FF0F39
:103AD0004FEA400CE6D018BFBCF17F4F38BF7047AB
:103AE000EAE79CEA026F05D010EA5C0F08BF00F01D
:103AF0000040704710B500F0F8F800BF64FBBE3E10
:103B0000401058BFC0F14040491058BFC1F140417A
:103B10008142EFF30080704741000B0ED3F19E020B
:103B200008D950F400034FEA032323FA02F048BFF8
:103B30004042704710B500F0D8F800BF4992248089
:103B4000002070476FF0004282EA200070470000BA
:103B500010F0004148BF4042B0FA80F310FA03F27F
:103B6000C3F19D030BD051EAC35101EB1220530660
:103B700038BF704700F1010008BF20F00100704716
:103B800050EA010C00F113801CF5000F58BFBCF582
:103B9000000F01D48842704707D710F5000F58BFB7
:103BA00011F5000F15D488427047894270471CF503
:103BB000000F04D5BCF5000FF7D5814270474FF0D8
:103BC000807C1CEB400F38BF1CEB410F01D28142BF
:103BD000704710B500F089F8922449004FF000506A
:103BE0004FF08051FFF78CBF4FF47F0C1CEAD012CE
:103BF0001EBF1CEAD11392EA0C0F93EA0C0F00F0DF
:103C0000478090EA010F48BF42F480724FF0004CA9
:103C10004CEA00204CEA012102EB0302A0FB011355
:103C2000A2F50002002918BF43F001035B0028BF82
:103C30004FEA330342EB22425FEA132C4CEBC250B3
:103C40002EBFBCEB436FB2F57C0F70474FEA036C9D
:103C5000BCF1004F08BF20F00100B2F57C0F38BF67
:103C600070470BD582F0FF0212F5803FC8BF704746
:103C700000F1C040D8BF00F00040704700F5000CD4
:103C80005FEA4C0C48BF7047B0F1C04000F073B819
:103C900090EA010F0CEAD11348BF42F480726245EA
:103CA00038BF634504D280EA010000F0004070474D
:103CB00010B500F01AF800BF8900013E00F007B807
:103CC00000F009B85FEA410C5FEA1C6C08D080EA9A
:103CD000010000F050B85FEA400C5FEA1C6CF6D1BE
:103CE0004FF00040A0F5800070470EF1020E2EF05C
:103CF000030E5EF8044B244204D44FEA4102B2F1B1
:103D00007F4F11D84FEA4003B3F17F4F0CD80ED14B
:103D10004FEAD07CB2F17F4F0CEB4C0C0CF1020C53
:103D200008BF4CEBD17C04E04FF0080C01E04FEAF7
:103D3000D17C0CEB4C0324FA03F404F00704B4F137
:103D4000040C06D20EEB840CBDE810404CF0010CC4
:103D50006047DFE80CF0070802024FF00040A0F5D2
:103D6000800010BD0846420018BFD2F1807288BFA3
:103D700000F0004010BDFF2141EAD050C00570475F
:103D800051EA000C00F113801CF5000F58BFBCF580
:103D9000000F01D48142704707D711F5000F58BFBB
:103DA00010F5000F15D481427047894270471CF509
:103DB000000F04D5BCF5000FF7D5884270474FF0CF
:103DC000807C1CEB410F38BF1CEB400F01D28842B6
:103DD000704780EA010081EA000180EA0100FFF7F4
:103DE000F8BE000090EA010F48BF81F000413FF5A6
:103DF0002CAE421A04D882F00042A0EB020011441B
:103E00004FEAD0524FF07F4C1CEA410FA2EBD15346
:103E100018BF9CEA026F4AD04FF0004C4CEA0020D9
:103E20004CEA012121FA03FCB0EB0C0C0FD412F088
:103E3000FE0F36D05FEA4C001DD5001240EBC25099
:103E400038BF70471CF03F0F18BF70470BE0A2F15E
:103E500001025FEA1C2040EBC25038BF70471CF0E3
:103E60007F0F18BF7047C3F12003994014BF401E55
:103E700020F00100704780084FEA122308BF704706
:103E8000B0FA80FCA2EB0C02CCF1280C60FA0CF02A
:103E900093EA122F04BF00EBC25070474FEAC37081
:103EA0007047130A5FEADC1008BF7047F6E79CEA28
:103EB000026F04D010EA5C0F08BF0020704710B5F5
:103EC000FFF713FF40DFF63E81F00040704700002F
:103ED00000000000000001020304060708090000BA
:103EE0000000010203040000083F00080000002059
:103EF0002C0000006C010008343F00082C0000205A
:103F0000DC0900008801000800000000000000003B
:103F10000000000001000000100000000000000090
:103F20000024F40001000000000000000000000078
:043F3000000000008D
:0400000508000131BD
:00000001FF
